{
  "_format": "hh-sol-artifact-1",
  "contractName": "Pizza",
  "sourceName": "contracts/pizza.sol",
  "abi": [
    {
      "inputs": [],
      "stateMutability": "nonpayable",
      "type": "constructor"
    },
    {
      "inputs": [
        {
          "internalType": "string",
          "name": "name",
          "type": "string"
        },
        {
          "internalType": "string",
          "name": "message",
          "type": "string"
        }
      ],
      "name": "buyPizza",
      "outputs": [],
      "stateMutability": "payable",
      "type": "function"
    },
    {
      "inputs": [],
      "name": "getMemos",
      "outputs": [
        {
          "components": [
            {
              "internalType": "string",
              "name": "name",
              "type": "string"
            },
            {
              "internalType": "string",
              "name": "message",
              "type": "string"
            },
            {
              "internalType": "uint256",
              "name": "timestamp",
              "type": "uint256"
            },
            {
              "internalType": "address",
              "name": "from",
              "type": "address"
            }
          ],
          "internalType": "struct Pizza.Memo[]",
          "name": "",
          "type": "tuple[]"
        }
      ],
      "stateMutability": "view",
      "type": "function"
    },
    {
      "inputs": [
        {
          "internalType": "uint256",
          "name": "",
          "type": "uint256"
        }
      ],
      "name": "memos",
      "outputs": [
        {
          "internalType": "string",
          "name": "name",
          "type": "string"
        },
        {
          "internalType": "string",
          "name": "message",
          "type": "string"
        },
        {
          "internalType": "uint256",
          "name": "timestamp",
          "type": "uint256"
        },
        {
          "internalType": "address",
          "name": "from",
          "type": "address"
        }
      ],
      "stateMutability": "view",
      "type": "function"
    }
  ],
  "bytecode": "0x608060405234801561001057600080fd5b5033600160006101000a81548173ffffffffffffffffffffffffffffffffffffffff021916908373ffffffffffffffffffffffffffffffffffffffff160217905550610e19806100616000396000f3fe6080604052600436106100345760003560e01c8063865c517214610039578063cd1a614b14610064578063e8dfdf0414610080575b600080fd5b34801561004557600080fd5b5061004e6100c0565b60405161005b9190610844565b60405180910390f35b61007e600480360381019061007991906108d5565b6102a3565b005b34801561008c57600080fd5b506100a760048036038101906100a29190610982565b6104be565b6040516100b79493929190610a17565b60405180910390f35b60606000805480602002602001604051908101604052809291908181526020016000905b8282101561029a578382906000526020600020906004020160405180608001604052908160008201805461011790610a99565b80601f016020809104026020016040519081016040528092919081815260200182805461014390610a99565b80156101905780601f1061016557610100808354040283529160200191610190565b820191906000526020600020905b81548152906001019060200180831161017357829003601f168201915b505050505081526020016001820180546101a990610a99565b80601f01602080910402602001604051908101604052809291908181526020018280546101d590610a99565b80156102225780601f106101f757610100808354040283529160200191610222565b820191906000526020600020905b81548152906001019060200180831161020557829003601f168201915b50505050508152602001600282015481526020016003820160009054906101000a900473ffffffffffffffffffffffffffffffffffffffff1673ffffffffffffffffffffffffffffffffffffffff1673ffffffffffffffffffffffffffffffffffffffff1681525050815260200190600101906100e4565b50505050905090565b600034116102e6576040517f08c379a00000000000000000000000000000000000000000000000000000000081526004016102dd90610b16565b60405180910390fd5b600160009054906101000a900473ffffffffffffffffffffffffffffffffffffffff1673ffffffffffffffffffffffffffffffffffffffff166108fc349081150290604051600060405180830381858888f1935050505015801561034e573d6000803e3d6000fd5b506000604051806080016040528086868080601f016020809104026020016040519081016040528093929190818152602001838380828437600081840152601f19601f82011690508083019250505050505050815260200184848080601f016020809104026020016040519081016040528093929190818152602001838380828437600081840152601f19601f8201169050808301925050505050505081526020014281526020013373ffffffffffffffffffffffffffffffffffffffff168152509080600181540180825580915050600190039060005260206000209060040201600090919091909150600082015181600001908161044e9190610d11565b5060208201518160010190816104649190610d11565b506040820151816002015560608201518160030160006101000a81548173ffffffffffffffffffffffffffffffffffffffff021916908373ffffffffffffffffffffffffffffffffffffffff160217905550505050505050565b600081815481106104ce57600080fd5b90600052602060002090600402016000915090508060000180546104f190610a99565b80601f016020809104026020016040519081016040528092919081815260200182805461051d90610a99565b801561056a5780601f1061053f5761010080835404028352916020019161056a565b820191906000526020600020905b81548152906001019060200180831161054d57829003601f168201915b50505050509080600101805461057f90610a99565b80601f01602080910402602001604051908101604052809291908181526020018280546105ab90610a99565b80156105f85780601f106105cd576101008083540402835291602001916105f8565b820191906000526020600020905b8154815290600101906020018083116105db57829003601f168201915b5050505050908060020154908060030160009054906101000a900473ffffffffffffffffffffffffffffffffffffffff16905084565b600081519050919050565b600082825260208201905092915050565b6000819050602082019050919050565b600081519050919050565b600082825260208201905092915050565b60005b83811015610694578082015181840152602081019050610679565b60008484015250505050565b6000601f19601f8301169050919050565b60006106bc8261065a565b6106c68185610665565b93506106d6818560208601610676565b6106df816106a0565b840191505092915050565b6000819050919050565b6106fd816106ea565b82525050565b600073ffffffffffffffffffffffffffffffffffffffff82169050919050565b600061072e82610703565b9050919050565b61073e81610723565b82525050565b6000608083016000830151848203600086015261076182826106b1565b9150506020830151848203602086015261077b82826106b1565b915050604083015161079060408601826106f4565b5060608301516107a36060860182610735565b508091505092915050565b60006107ba8383610744565b905092915050565b6000602082019050919050565b60006107da8261062e565b6107e48185610639565b9350836020820285016107f68561064a565b8060005b85811015610832578484038952815161081385826107ae565b945061081e836107c2565b925060208a019950506001810190506107fa565b50829750879550505050505092915050565b6000602082019050818103600083015261085e81846107cf565b905092915050565b600080fd5b600080fd5b600080fd5b600080fd5b600080fd5b60008083601f84011261089557610894610870565b5b8235905067ffffffffffffffff8111156108b2576108b1610875565b5b6020830191508360018202830111156108ce576108cd61087a565b5b9250929050565b600080600080604085870312156108ef576108ee610866565b5b600085013567ffffffffffffffff81111561090d5761090c61086b565b5b6109198782880161087f565b9450945050602085013567ffffffffffffffff81111561093c5761093b61086b565b5b6109488782880161087f565b925092505092959194509250565b61095f816106ea565b811461096a57600080fd5b50565b60008135905061097c81610956565b92915050565b60006020828403121561099857610997610866565b5b60006109a68482850161096d565b91505092915050565b600082825260208201905092915050565b60006109cb8261065a565b6109d581856109af565b93506109e5818560208601610676565b6109ee816106a0565b840191505092915050565b610a02816106ea565b82525050565b610a1181610723565b82525050565b60006080820190508181036000830152610a3181876109c0565b90508181036020830152610a4581866109c0565b9050610a5460408301856109f9565b610a616060830184610a08565b95945050505050565b7f4e487b7100000000000000000000000000000000000000000000000000000000600052602260045260246000fd5b60006002820490506001821680610ab157607f821691505b602082108103610ac457610ac3610a6a565b5b50919050565b7f506c656173652070617920746f206275792050697a7a61000000000000000000600082015250565b6000610b006017836109af565b9150610b0b82610aca565b602082019050919050565b60006020820190508181036000830152610b2f81610af3565b9050919050565b7f4e487b7100000000000000000000000000000000000000000000000000000000600052604160045260246000fd5b60008190508160005260206000209050919050565b60006020601f8301049050919050565b600082821b905092915050565b600060088302610bc77fffffffffffffffffffffffffffffffffffffffffffffffffffffffffffffffff82610b8a565b610bd18683610b8a565b95508019841693508086168417925050509392505050565b6000819050919050565b6000610c0e610c09610c04846106ea565b610be9565b6106ea565b9050919050565b6000819050919050565b610c2883610bf3565b610c3c610c3482610c15565b848454610b97565b825550505050565b600090565b610c51610c44565b610c5c818484610c1f565b505050565b5b81811015610c8057610c75600082610c49565b600181019050610c62565b5050565b601f821115610cc557610c9681610b65565b610c9f84610b7a565b81016020851015610cae578190505b610cc2610cba85610b7a565b830182610c61565b50505b505050565b600082821c905092915050565b6000610ce860001984600802610cca565b1980831691505092915050565b6000610d018383610cd7565b9150826002028217905092915050565b610d1a8261065a565b67ffffffffffffffff811115610d3357610d32610b36565b5b610d3d8254610a99565b610d48828285610c84565b600060209050601f831160018114610d7b5760008415610d69578287015190505b610d738582610cf5565b865550610ddb565b601f198416610d8986610b65565b60005b82811015610db157848901518255600182019150602085019450602081019050610d8c565b86831015610dce5784890151610dca601f891682610cd7565b8355505b6001600288020188555050505b50505050505056fea2646970667358221220ec1d66f3037fef9f01c1648723b492597bdfffa124f2025f2ba0117cab1b6cd364736f6c63430008110033",
  "linkReferences": {},
  "deployedLinkReferences": {}
}